:020000020000FC
:100000000FE50DBF02E00EBF0FEF0ABB08BBB09BB0
:100010000FD0B19B1BD0B29B28D0B39B36D0B49BE2
:1000200045D0B59B55D0B69B66D0B79B78D0EFCF67
:10003000D89A8AD089D088D087D086D085D084D0ED
:10004000D8980BE281D00A95E9F70895D89A7CD028
:100050007BD07AD079D078D077D076D075D0D89838
:100060000AE272D00A95E9F70895D89A6DD06CD05B
:100070006BD06AD069D068D067D066D065D0D89888
:1000800009E262D00A95E9F70895D89A5DD05CD06C
:100090005BD05AD059D058D057D056D055D054D024
:1000A000D89808E251D00A95E9F70895D89A4CD02B
:1000B0004BD04AD049D048D047D046D045D044D084
:1000C00043D042D0D89807E23FD00A95E9F7089587
:1000D000D89A3AD039D038D037D036D035D034D07D
:1000E00033D032D031D030D02FD0D89806E22CD0B7
:1000F0000A95E9F70895D89A27D026D025D024D09C
:1001000023D022D021D020D01FD01ED01DD01CD073
:100110001BD0D89805E218D00A95E9F70895D89A27
:1001200013D012D011D010D00FD00ED00DD00CD0D3
:100130000BD00AD009D008D007D006D0D89804E256
:1001400003D00A95E9F708952DE22A95F1F700000A
:02015000089510
:00000001FF
