:020000020000FC
:0600000009C044C0A0C0CD
:1000120031C00FE50DBF02E00EBF0BD01AD0FF2793
:10002200EE2711E015BB00810BBB000000000000B1
:10003200FCCF0FEF0ABB08BB04BB02BB03E003BF4C
:1000420001E009BF21EC03E005BF00EC0BBF78948F
:10005200089500E4702E00E4602E00E4502E00E4C7
:10006200402E00E4302E00E4202E00E4102E00E4A6
:10007200002E089522BFFBBBE395110F11F411E08E
:10008200EE2715BB00810BBB1895872C762C652CAF
:10009200542C432C322C212C102C36B33737B9F187
:1000A2003B3761F13D3709F13E37E9F1373B91F1D9
:1000B2003B3B39F13D3BE1F03E3BA1F0373D69F17D
:1000C2003B3D11F13D3DB9F03E3DC9F1373E41F1B5
:1000D2003D3E79F13E3E51F13B3E71F146B343174D
:1000E200E9F318950FE3002EF9CF06E0002EF6CFC4
:1000F2000BE5002EF3CF0FE4002EF0CF06E6002E24
:10010200EDCF0DE6002EEACF0DE7002EE7CF07E098
:10011200002EE4CF0FE7002EE1CF07E6002EDECF60
:1001220004E6002EDBCF07E7002ED8CF00E7002E33
:10013200D5CF00E4002ED2CF06E7002ECFCF09E4C0
:10014200002ECCCF00E4902E012C122C232C342C28
:0C015200452C562C672C782C892C189515
:00000001FF
