:020000020000FC
:020000000EC030
:040010002FC021C01C
:10001C0019C00FE50DBF02E00EBF0FEF01BB07BB10
:10002C0004BB0DEE06B907E207B932E033BF32E08C
:10003C003EBD35E039BF78944FEF21E0FF27E0E07B
:10004C0002BBFECF14B105B11895F8BB3191220F4C
:10005C0028F0209525BB209538BB189521E0E0E0D1
:10006C003191F7CF402F4931E9F0433351F14C3402
:10007C00B9F1463679F0403871F0493969F0433BB3
:10008C0061F04C3C59F0463E51F04F3F49F0403046
:10009C0041F0189534C042C050C05EC06CC07AC0EC
:1000AC0088C096C0FF93EF93F1E0EAEF05901590AE
:1000BC00259035904590559065907490EF91FF91F7
:1000CC00E8CFFF93EF93F2E0E2E0059015902590D6
:1000DC0035904590559065907490EF91FF91D9CFE4
:1000EC00FF93EF93F2E0EAE00590159025903590A0
:1000FC004590559065907490EF91FF91CACFFF9306
:10010C00EF93F2E0E2E10590159025903590459043
:10011C00559065907490EF91FF91BBCFFF93EF9347
:10012C00F2E0EAE1059015902590359045905590B8
:10013C0065907490EF91FF91ACCFFF93EF93F2E049
:10014C00E2E205901590259035904590559065907C
:10015C007490EF91FF919DCFFF93EF93F2E0EAE261
:10016C00059015902590359045905590659074901C
:10017C00EF91FF918ECFFF93EF93F2E0E2E30590C6
:10018C001590259035904590559065907490EF9111
:10019C00FF917FCFFF93EF93F2E0EAE30590159088
:1001AC00259035904590559065907490EF91FF9106
:1001BC0070CFFF93EF93F2E0E2E405901590259059
:1001CC0035904590559065907490EF91FF9161CF6B
:1001DC00FF93EF93F2E0EAE40590159025903590AB
:1001EC004590559065907490EF91FF9152CF007CA3
:1001FC008282827C0000002242FE02020000004249
:10020C00868A9262000000448292926C0000000880
:10021C00182848FE000000F49292928C0000007C9A
:10022C009292924C00000080808080FE0000006C56
:10023C009292926C000000649292927C00007E81FB
:06024C00A98585A9817E51
:00000001FF
