:020000020000FC
:0200000012C02C
:0200080047C0EF
:0400100049C031C0F2
:1000240059C03FE53DBF32E03EBF3FEF3ABB34BB72
:1000340031BB38BB30E434BF30E23BBF36E033BFC2
:1000440035E439BF789441E03AEF32BF83EB95EB66
:1000540056E06BEF20E010E036D0702F72BB32B761
:10006400361711F055BBFBCF332753135A956395BD
:10007400F9CF20E010E027D0702F739520E010E036
:10008400072F19D072BB32E035BD8DBD9CBD34E065
:100094003EBD189531E734BD39B334273BBB1895C1
:1000A4008DBD9CBD30E035BD30E03EBD3AEF32BF82
:1000B40056E06BEF1895E199FECF2FBB1EBB0DBB2D
:1000C400E29AE19A0895E199FECF2FBB1EBBE09A14
:1000D4000DB30895772720E010E0072FECDF72BB03
:0200E40018956D
:00000001FF
